:100000000A128A11F72F00308A000408840A820736
:1000100000344234693465346E34763465346E3479
:0A002000693464346F346134003435
:100B2E008312031394168316031387110716871265
:100B3E00080000300A128A11AD250A128A110130FE
:100B4E000A128A11AD250A128A110800F3008312C7
:100B5E000313081173080A128A11C7250A128A1183
:100B6E008312031388151A30F200F830F100F10BDE
:100B7E00BE2DF20BBE2D0000831203138811080048
:100B8E00F000701CCB2DCC2DD02D83120313081624
:100B9E00D32D831203130812F01CD62DD72DD92D69
:100BAE008816DA2D8812701DDD2DDE2DE02D08172A
:100BBE00E12D0813F01DE42DE52DE72D8817E82D06
:100BCE00881308007330F3007308F400FD2D7508C8
:100BDE00F300700884008317711C83137308800060
:100BEE000130F0070318F10A0030F1070130F20767
:100BFE00FF30720784000A128A1103200A128A112A
:100C0E00F3007308F5007508031D0E2E0F2EEE2D42
:100C1E00700884008317711C831380010800F30091
:100C2E008312031307101030F200F20B1C2E00007B
:100C3E0002308312031393001030F200F20B252EB4
:100C4E00000071088312031393001030F200F20BB0
:100C5E002E2E000070088312031393001030F20042
:100C6E00F20B372E0000730883120313930010301B
:100C7E00F200F20B402E000083120313071408003B
:100C8E0083160313941370087104031D4F2E502EF8
:100C9E00562E8312031314128316031314137003A8
:100CAE007104031D5B2E5C2E622E83120313141629
:100CBE00831603131413023070067104031D682E7D
:100CCE00692E6F2E83120313141283160313141737
:100CDE00033070067104031D752E762E7C2E831242
:100CEE00031314168316031314170800F700770363
:100CFE00031D822E832EA62E74087F3EF5007508E6
:100D0E00FA007A08F50004300310F50CFF3E031DBF
:100D1E008B2E7508F6007608F8007A080F39F50064
:100D2E007508F90078080A128A11AD250A128A117F
:100D3E0079080A128A11AD250A128A11CE2E0230B6
:100D4E007706031DAB2EAC2ECE2E7408BF3EF500DB
:100D5E007508FA007A08F50004300310F50CFF3E12
:100D6E00031DB42E7508F6007608F8007A080F39C0
:100D7E00F5007508F90078080A128A11AD250A12D5
:100D8E008A1179080A128A11AD250A128A110800F1
:100D9E0070087104031DD42ED52EDC2E831203137E
:100DAE009411141194101410212F70037104031D4B
:100DBE00E12EE22EE92E83120313941114119410D6
:100DCE001414212F023070067104031DEF2EF02E25
:100DDE00F72E831203139411141194141410212F4F
:100DEE00033070067104031DFD2EFE2E052F831297
:100DFE0003139411141194141414212F043070063B
:100E0E007104031D0B2F0C2F132F83120313941138
:100E1E00141594101410212F053070067104031D43
:100E2E00192F1A2F212F83120313941114159410B6
:100E3E001414212F080000300A128A11C7250A1235
:100E4E008A118230F500DD30F400F40B2C2FF50BF7
:100E5E002C2F312F03300A128A11AD250A128A1156
:100E6E002130F5007630F400F40B3B2FF50B3B2FC1
:100E7E00000003300A128A11AD250A128A11483079
:100E8E00F5006C30F400F40B4A2FF50B4A2F0000DE
:100E9E0003300A128A11AD250A128A1102300A1283
:100EAE008A11AD250A128A1102300A128A11AD2555
:100EBE000A128A1108300A128A11AD250A128A11F5
:100ECE0000300A128A11AD250A128A110C300A124C
:100EDE008A11AD250A128A1100300A128A11AD2527
:100EEE000A128A1106300A128A11AD250A128A11C7
:100EFE00080083120313A001A10183160313071028
:100F0E00831203130714831603138801831203132A
:100F1E0088140A128A1197250A128A110030F000DD
:100F2E00F1000A128A11CF260A128A110030F0003F
:100F3E00F1000A128A1147260A128A110A128A1120
:100F4E0022270A128A110A128A11A0250A128A1160
:100F5E00F401F40A01300A128A117D260A128A114E
:100F6E000030F000F1000130FB007B08F2000A12A5
:100F7E008A11E9250A128A110A128A11A0250A126B
:100F8E008A1183120313A201A301831203132308F0
:100F9E00F1002208F00020080A128A1116260A1201
:100FAE008A11013083120313A0070318A10A00301F
:100FBE00A1070130A2070318A30A0030A3072308D4
:100FCE00803AFF0080307F02031DEF2F6530220232
:100FDE00031CF22FF32FCC2FF32F0A128A110028A5
:100FEE00FC0183120313A401A50183010A128A11C5
:020FFE00802F42
:02400E003A3F37
:00000001FF
